:100000000C945D000C9485000C9485000C94850084
:100010000C9485000C9485000C9485000C9485004C
:100020000C9485000C9485000C9485000C9485003C
:100030000C9485000C9485000C9485000C9485002C
:100040000C9458040C9485000C94C8040C94A204DD
:100050000C9485000C9485000C9485000C9485000C
:100060000C9485000C94850000000008000201003B
:100070000003040700000000000000000000000072
:10008000250028002B0000000000240027002A0083
:10009000040404040404040402020202020203032E
:1000A0000303030301020408102040800102040836
:1000B0001020010204081020E20611241FBECFEF19
:1000C000D8E0DEBFCDBF11E0A0E0B1E0E8EFF4E1A1
:1000D00002C005900D92A435B107D9F722E0A4E53E
:1000E000B1E001C01D92A830B207E1F710E0CDE504
:1000F000D0E004C02197FE010E948208CC35D107D0
:10010000C9F70E94FA040C947A0A0C940000AF928A
:10011000BF92CF92DF92EF92FF920F931F93CF93F4
:10012000DF936C017B018B01040F151FEB015E0156
:10013000AE18BF08C017D10759F06991D601ED91EB
:10014000FC910190F081E02DC6010995892B79F78A
:10015000C501DF91CF911F910F91FF90EF90DF903C
:10016000CF90BF90AF900895FC01538D448D252F03
:1001700030E0842F90E0821B930B541710F0CF9641
:10018000089501970895FC01918D828D981761F073
:10019000A28DAE0FBF2FB11D5D968C91928D9F5F8A
:1001A0009F73928F90E008958FEF9FEF0895FC0169
:1001B000918D828D981731F0828DE80FF11D858D1C
:1001C00090E008958FEF9FEF08952FB7F8948091F6
:1001D000630190916401A0916501B09166012FBF08
:1001E00080936F0190937001A0937101B09372019D
:1001F00087E691E00E94D70097FF26C02FB7F894BA
:100200008091630190916401A0916501B0916601B4
:100210002FBF40916F0150917001609171017091F9
:100220007201841B950BA60BB70B40916B0150918B
:100230006C0160916D0170916E0184179507A6079E
:10024000B707B0F28FEF9FEF0895CF92DF92EF9252
:10025000FF92CF930E94E500FC0197FD4EC08D32C6
:10026000910521F0C0970A9708F040C0C12CD12C0D
:100270007601C0E0E130F105D1F0ED32F105D9F1C0
:10028000CF01C0970A9798F4AAE0B0E0A7019601C1
:100290000E9407086F01FF0FEE08FF08C60ED71E69
:1002A000E81EF91E80E3C81AD108E108F10887E6C4
:1002B00091E00E94C3000E94E500FC01C0970A97EC
:1002C000C8F2E130F105B1F2CC2341F0F094E094B2
:1002D000D094C094C11CD11CE11CF11CC701B60113
:1002E000CF91FF90EF90DF90CF90089587E691E057
:1002F0000E94C300AFCFC1E0DACFC12CD12C760170
:10030000EDCFFC01918D228D892F90E0805C9F4F75
:10031000821B91098F739927089587E691E00E94C7
:10032000810121E0892B09F420E0822F089580E0EB
:1003300090E0892B29F00E948D0181110C9400001E
:100340000895FC01A48DA80FB92FB11DA35ABF4F6A
:100350002C91848D90E001968F739927848FA689C4
:10036000B7892C93A089B1898C91837080648C9318
:10037000938D848D981306C00288F389E02D8081C7
:100380008F7D80830895EF92FF920F931F93CF93F9
:10039000DF93EC0181E0888F9B8D8C8D98131AC0C0
:1003A000E889F989808185FF15C09FB7F894EE89A7
:1003B000FF896083E889F989808183708064808304
:1003C0009FBF81E090E0DF91CF911F910F91FF904F
:1003D000EF900895F62E0B8D10E00F5F1F4F0F73F7
:1003E0001127E02E8C8D8E110CC00FB607FCFACFB2
:1003F000E889F989808185FFF5CFCE010E94A101AE
:10040000F1CFEB8DEC0FFD2FF11DE35AFF4FF08282
:100410009FB7F8940B8FEA89FB8980818062CFCFE8
:10042000CF93DF93EC01888D8823B9F0AA89BB892B
:10043000E889F9898C9185FD03C0808186FD0DC016
:100440000FB607FCF7CF8C9185FFF2CF808185FF37
:10045000EDCFCE010E94A101E9CFDF91CF910895A8
:1004600090E0FC01E859FF4F2491FC01EC55FF4F4F
:100470003491FC01E057FF4FE491EE23C9F02223B1
:1004800039F0233001F1A8F4213019F1223029F19B
:10049000F0E0EE0FFF1FE458FF4FA591B4918FB726
:1004A000F894EC91611126C030953E233C938FBFA8
:1004B00008952730A9F02830C9F0243049F78091F9
:1004C00080008F7D03C0809180008F7780938000B3
:1004D000DFCF84B58F7784BDDBCF84B58F7DFBCF35
:1004E0008091B0008F778093B000D2CF8091B00020
:1004F0008F7DF9CF3E2BDACF83309105F9F07CF474
:1005000060E00297E1F061E08DE00E94300260E07F
:100510008CE00E94300260E08BE00C94300284306A
:10052000910591F061E0059771F78DE00E9430022E
:1005300060E08CE00E94300261E0EECF61E08DE08F
:100540000E94300261E0E4CF60E0EFCFE4E5F1E04B
:1005500011821082138212821582148217821682EF
:100560001186108681E090E00C947C0242E050E01D
:100570006CE171E087E691E00C948700CF93DF9304
:10058000FC01448155816081718187E691E00E9480
:100590008700EC010E94B6028C0F9D1FDF91CF9166
:1005A00008950F931F93CF93DF93EC018881998176
:1005B000009759F02A813B812617370730F081E0F8
:1005C000DF91CF911F910F9108958B016F5F7F4F46
:1005D0000E94AD09009759F0998388831B830A8391
:1005E0002C813D81232B59F7FC011082E8CF80E05C
:1005F000E7CFEF92FF920F931F93CF93DF93611595
:10060000710541F480E0DF91CF911F910F91FF9030
:10061000EF90089541155105B1F07B01EC010C817B
:100620001D81040F151FB8010E94D102882351F3C8
:10063000288139818C819D81B701820F931F0E948F
:10064000730A1D830C8381E0DECFCF93DF93EC012F
:1006500088819981009711F00E94240919821882DB
:100660001D821C821B821A82DF91CF910895CF9345
:10067000DF93EC01198218821B821A821D821C8270
:1006800070E060E00E94D102811105C0CE01DF91CF
:10069000CF910C9425031D821C826EE171E088814C
:1006A0009981DF91CF910C94730AEF92FF920F938F
:1006B0001F93CF93DF93CDB7DEB728970FB6F8948B
:1006C000DEBF0FBECDBF7C01CB014AE08E010F5FC4
:1006D0001F4FB8010E94B307F80101900020E9F70D
:1006E0003197AF01401B510BB801C7010E94F902BD
:1006F000811103C0C7010E942503C70128960FB6C8
:10070000F894DEBF0FBECDBFDF91CF911F910F9147
:10071000FF90EF900895CF93DF93EC01FB010190E0
:100720000020E9F73197AF01461B570B0E94F902F1
:10073000811103C0CE010E942503CE01DF91CF912C
:100740000895FC0180819181009711F00C94240997
:100750000895EF92FF920F931F93CF93DF93EC01D5
:10076000198218821B821A821D821C8286179707A3
:1007700019F1FB010081118101151105E9F0E480F7
:10078000F580B7010E94D102811109C0CE01DF912D
:10079000CF911F910F91FF90EF900C942503FD8254
:1007A000EC82B80188819981DF91CF911F910F91DF
:1007B000FF90EF900C94730ADF91CF911F910F91EE
:1007C000FF90EF9008956F927F928F929F92AF92D9
:1007D000BF92CF92DF92EF92FF920F931F93CF932E
:1007E000DF93CDB7DEB72C970FB6F894DEBF0FBE00
:1007F000CDBF8C01CE0107960E943703E4E5F1E0FE
:1008000060847184E680F780C480D580A280B38044
:1008100080809180BE01695F7F4FCE0101960E946A
:10082000A903B401CE0101960E9455036FE171E066
:100830000E948B03B5010E9455036FE171E00E9495
:100840008B03B6010E9455036FE171E00E948B0398
:10085000B7010E9455036FE171E00E948B03B30161
:100860000E9455036FE171E00E948B03BC01C80137
:100870000E94A903CE0101960E94A103CE01079612
:100880000E94A103C8012C960FB6F894DEBF0FBEDC
:10089000CDBFDF91CF911F910F91FF90EF90DF902F
:1008A000CF90BF90AF909F908F907F906F90089562
:1008B0001F920F920FB60F9211242F933F938F9395
:1008C0009F93AF93BF938091630190916401A09136
:1008D0006501B09166013091620123E0230F2D374D
:1008E00058F50196A11DB11D20936201809363010B
:1008F00090936401A0936501B093660180915E01BD
:1009000090915F01A0916001B09161010196A11DDC
:10091000B11D80935E0190935F01A0936001B0933D
:100920006101BF91AF919F918F913F912F910F9056
:100930000FBE0F901F90189526E8230F0296A11D59
:10094000B11DD2CF1F920F920FB60F9211242F9389
:100950003F934F935F936F937F938F939F93AF9347
:10096000BF93EF93FF9387E691E00E94A101FF916F
:10097000EF91BF91AF919F918F917F916F915F9117
:100980004F913F912F910F900FBE0F901F90189590
:100990001F920F920FB60F9211242F938F939F9354
:1009A000EF93FF93E0917701F09178018081E091DE
:1009B0007D01F0917E0182FD1BC0908180918001BC
:1009C0008F5F8F7320918101821741F0E091800148
:1009D000F0E0E959FE4F958F80938001FF91EF91F0
:1009E0009F918F912F910F900FBE0F901F90189590
:1009F0008081F4CFCF93DF93CDB7DEB762970FB688
:100A0000F894DEBF0FBECDBF789484B5826084BDFC
:100A100084B5816084BD85B5826085BD85B5816002
:100A200085BD80916E00816080936E001092810080
:100A3000809181008260809381008091810081603B
:100A400080938100809180008160809380008091FC
:100A5000B10084608093B1008091B0008160809388
:100A6000B00080917A00846080937A0080917A004F
:100A7000826080937A0080917A00816080937A000E
:100A800080917A00806880937A001092C100E09192
:100A90007701F091780182E08083E0917301F09119
:100AA00074011082E0917501F09176018FEC8083E2
:100AB00010927F01E0917B01F0917C0186E08083C0
:100AC000E0917901F0917A01808180618083E091E9
:100AD0007901F0917A01808188608083E0917901C9
:100AE000F0917A01808180688083E0917901F091B2
:100AF0007A0180818F7D808381E480937C00809166
:100B00007A00806480937A0080917A0086FDFCCF21
:100B10008091780060917900762F682F072E000C65
:100B2000880B990B611571058105910511F00E94E3
:100B3000AA072DE030E0F901EC55FF4F4491F9018F
:100B4000E057FF4F8491882399F090E0880F991F18
:100B5000FC01EA57FF4FA591B491FC01E458FF4F07
:100B6000859194918FB7F894EC91E42BEC938FBF1F
:100B70002150310925303105F1F624E0422E512C67
:100B8000612C712C30E0832E30E0932E0E945B07A5
:100B900087E691E00E948101892B09F492C00E94AE
:100BA00025016530710509F002C1109255011092BE
:100BB000540110925701109256011092590110924F
:100BC000580110925B0110925A0110925D0110922F
:100BD0005C0194E5C92E91E0D92E10E000E00E945E
:100BE0005B07A30192010E94E8076F5F7F4F8F4F61
:100BF0009F4FF601619371936F010F5F1F4FC80103
:100C00000E947C02CE010D960E943703CE01019610
:100C10000E94E303BE01635F7F4FCE0107960E94EF
:100C2000A9034D815E8169817A81CE0107960E9478
:100C3000F902811104C0CE0107960E94250361E2EA
:100C400071E0CE0107960E948B030E94BE02CE0186
:100C500007960E94A103CE0101960E94A10384E59C
:100C6000A82E81E0B82EF12CE12C87E691E00E94BD
:100C70008101892BD1F30E9425016630710569F548
:100C80000E94A602CE0107960E94E303BE01695F9F
:100C90007F4FCE0101960E94A90368E271E0CE0168
:100CA00001960E948B030E94BE02CE0101960E9413
:100CB000A103CE0107960E94A103CE010D960E94CA
:100CC000A1038114910409F461CF0E948D0188234E
:100CD00009F45CCF0E94000059CFF50181919191F8
:100CE0005F016817790709F044C0CE0107960E949A
:100CF000E303BE01695F7F4FCE0101960E94A90305
:100D00006EE271E0CE0101960E948B030E94BE024A
:100D1000CE0101960E94A103CE0107960E94A10375
:100D2000FFEFEF1AFF0AE016F1060CF49ECFCE019A
:100D30000D960E94A1030530110509F050CFCE0198
:100D400007960E94E303BE01695F7F4FCE010196C3
:100D50000E94A90367E371E0CE0101960E948B0314
:100D60000E94BE02CE0101960E94A103CE01079609
:100D7000A6CFCE0107960E94E303BE01695F7F4FB5
:100D8000CE0101960E94A90363E371E0CE010196B2
:100D90000E948B030E94BE02CE0101960E94A10315
:100DA000CE0107960E94A1030E94A60286CF47E1CA
:100DB00050E06BE371E087E691E00E9487000E94BB
:100DC000B6027FCFE7E6F1E01382128288EE93E06D
:100DD000A0E0B0E084839583A683B7838EE091E0A2
:100DE0009183808385EC90E09587848784EC90E004
:100DF0009787868780EC90E0918B808B81EC90E0E8
:100E0000938B828B82EC90E0958B848B86EC90E0C8
:100E1000978B868B118E128E138E148E08958F925F
:100E20009F92AF92BF92CF92DF92EF92FF92CF93B9
:100E3000DF93EC01688179818A819B81611571055D
:100E40008105910521F464E279ED8BE597E02DE1D0
:100E500033EF41E050E00E94E80749015A019B014D
:100E6000AC01A7EAB1E40E9407086B017C01ACEE7B
:100E7000B4EFA50194010E941508C60ED71EE81E06
:100E8000F91EF7FE06C081E0C81AD108E10880E823
:100E9000F80AC882D982EA82FB82C701B6019F772D
:100EA000DF91CF91FF90EF90DF90CF90BF90AF9008
:100EB0009F908F9008958F929F92AF92BF92CF9202
:100EC000DF92EF92FF926091000170910101809199
:100ED000020190910301611571058105910521F4CD
:100EE00064E279ED8BE597E02DE133EF41E050E0EE
:100EF0000E94E80749015A019B01AC01A7EAB1E44D
:100F00000E9407086B017C01ACEEB4EFA5019401CF
:100F10000E941508C60ED71EE81EF91EF7FE06C071
:100F200081E0C81AD108E10880E8F80AC0920001FF
:100F3000D0920101E0920201F0920301C701B601D3
:100F40009F77FF90EF90DF90CF90BF90AF909F90F2
:100F50008F900895609300017093010180930201C6
:100F6000909303010895BB274A3031F4992322F46A
:100F7000BDE2909581959F4F0C94BF07BB27FB0165
:100F80005527AA27880F991FAA1FA41710F0A41B82
:100F900083955051B9F7A05DAA3308F0A95DA193DC
:100FA000009779F7B111B1931192CB010C94D80746
:100FB000DC01FC01672F71917723E1F7329704C0C0
:100FC0007C916D9370836291AE17BF07C8F308954B
:100FD000052E97FB1EF400940E94FF0757FD07D0D3
:100FE0000E94510807FC03D04EF40C94FF07509563
:100FF0004095309521953F4F4F4F5F4F0895909505
:101000008095709561957F4F8F4F9F4F08950E94F7
:101010007308A59F900DB49F900DA49F800D911D06
:1010200011240895B7FF0C9407080E940708821B3B
:10103000930B08952F923F924F925F926F927F92FF
:101040008F929F92AF92BF92CF92DF92EF92FF92D8
:101050000F931F93CF93DF93CDB7DEB7CA1BDB0B84
:101060000FB6F894DEBF0FBECDBF09942A88398829
:1010700048885F846E847D848C849B84AA84B98430
:10108000C884DF80EE80FD800C811B81AA81B9813C
:10109000CE0FD11D0FB6F894DEBF0FBECDBFED0150
:1010A0000895A1E21A2EAA1BBB1BFD010DC0AA1FA9
:1010B000BB1FEE1FFF1FA217B307E407F50720F0C1
:1010C000A21BB30BE40BF50B661F771F881F991F3C
:1010D0001A9469F760957095809590959B01AC0185
:1010E000BD01CF010895A29FB001B39FC001A39F8E
:1010F000700D811D1124911DB29F700D811D112451
:10110000911D0895EE0FFF1F0590F491E02D0994B5
:101110000F931F93CF93DF938230910510F482E0F9
:1011200090E0E0910602F091070230E020E0B0E0AC
:10113000A0E0309799F42115310509F44AC0281B25
:10114000390B24303105D8F58A819B8161157105F1
:1011500089F1FB0193838283FE0111C0408151819B
:101160000281138148175907E0F04817590799F48D
:10117000109761F012960C93129713961C93329667
:10118000CF01DF91CF911F910F9108950093060237
:1011900010930702F4CF2115310551F04217530780
:1011A00038F0A901DB019A01BD01DF01F801C1CFCF
:1011B000EF01F9CF9093070280930602CDCFFE0195
:1011C000E20FF31F819391932250310939832883D1
:1011D000D7CF2091040230910502232B41F42091B6
:1011E00006013091070130930502209304022091FB
:1011F0000401309105012115310541F42DB73EB7A9
:101200004091080150910901241B350BE091040223
:10121000F0910502E217F307A0F42E1B3F0B2817ED
:10122000390778F0AC014E5F5F4F2417350748F05F
:101230004E0F5F1F509305024093040281939193D8
:101240009FCFF0E0E0E09CCFCF93DF930097E9F0F1
:10125000FC01329713821282A0910602B09107021C
:10126000ED0130E020E01097A1F420813181820F60
:10127000931F20910402309105022817390709F0C5
:1012800061C0F0930502E0930402DF91CF910895CD
:10129000EA01CE17DF07E8F54A815B819E0141151F
:1012A0005105B1F7E901FB83EA8349915991C40FD4
:1012B000D51FEC17FD0761F4808191810296840FA0
:1012C000951FE90199838883828193819B838A8317
:1012D000F0E0E0E012968D919C9113970097B9F59C
:1012E0002D913C911197CD010296820F931F209171
:1012F0000402309105022817390739F6309751F565
:101300001092070210920602B0930502A093040205
:10131000BCCFD383C28340815181840F951FC817EE
:10132000D90761F44E5F5F4F88819981480F591F3B
:10133000518340838A819B81938382832115310568
:1013400009F0B0CFF0930702E09306029ECFFD01B3
:10135000DC01C0CF13821282D7CFB0E0A0E0E3EB74
:10136000F9E00C941C088C01009751F4CB010E9409
:1013700088088C01C801CDB7DEB7E0E10C943808CD
:10138000FC01E60FF71F9C0122503109E217F30719
:1013900008F49DC0D901CD91DC911197C617D707EC
:1013A00098F0C530D10530F3CE0104978617970722
:1013B00008F3C61BD70B2297C193D1936D937C93EF
:1013C000CF010E942409D6CF5B01AC1ABD0A4C01A3
:1013D0008C0E9D1EA0910602B0910702512C412C4B
:1013E000F12CE12C109731F58091040290910502C7
:1013F0008815990509F05CC04616570608F058C0D4
:101400008091040190910501009741F48DB79EB73A
:101410004091080150910901841B950BE817F907C9
:1014200008F055C0F0930502E0930402F9017183BE
:101430006083A0CF8D919C91119712966C9012971A
:1014400013967C901397A815B90559F56C0142E0E5
:10145000C40ED11CCA14DB0420F1AC014A195B098B
:10146000DA011296159780F062827382518340836D
:10147000D9016D937C93E114F10471F0D7011396B7
:10148000FC93EE93129776CF22968C0F9D1FF90155
:1014900091838083F301EFCFF0930702E09306027C
:1014A00069CF4816590608F42C017D01D3019ACF63
:1014B000CB010E9488087C01009749F0AE01B80179
:1014C0000E946A0AC8010E942409870153CF10E0D4
:1014D00000E050CFFB01DC0102C001900D924150B1
:1014E0005040D8F70895FB01DC0101900D920020D7
:0814F000E1F70895F894FFCF25
:1014F8000100000000000802800000000000C30195
:101508008700B40010028101C300D7000D0A002C27
:1015180000696E6963696F0072657365740062695A
:10152800656E006D616C0066696E00456C206A75B9
:1015380065676F2061756E206E6F20696E696369DB
:04154800612E000010
:00000001FF
